:1000000000308A0025280000443084008313000853
:10001000031917280630F800F701F70B0D28F80B25
:100020000C287B30F700F70B1328800B0A280800F8
:10003000861483168610FE3087008312A0001430C9
:10004000C40004208A110A12582803081F398300AB
:10005000FF30A0000430A1001430A2000130A30042
:100060000830A400AA01A901A801A701AE01AD01B1
:10007000AC01AB01B201B101B001AF01B601B501F4
:10008000B401B301BA01B9014830B8008430B700F7
:10009000BE01BD01BC01BB0183161F149F141F15B7
:1000A0009F1107309C0083138312A501A601182815
:1000B000A010200883168700831287140230C30023
:1000C000FA30C4000420C30B6028A0102008831657
:1000D0008700831287100230C300FA30C400042066
:0800E000C30B6D2858286300D2
:02400E00323F3F
:00000001FF
;PIC16F877A
;CRC=84DF  CREATED="11-Dec-23 21:07"
