:1000000005308A00C72D00000A108A100A118207E5
:1000100028340C3401340634C8326C366F00CC32CC
:10002000F6326C1D2000473084008313000803194A
:1000300026280630F800F701F70B1C28F80B1B28C0
:100040007B30F700F70B2228800B192808000830B6
:10005000F80000008711A011200883168700000017
:100060008312D40D0712031C3B2820162008831688
:1000700087003F2883122012200883168700000083
:100080008312A0152008831687008312871D462837
:10009000F80B292800008711A0112008831687007B
:1000A000000083122016200883168700000000003D
:1000B0008312A0152008831687008312871D5E28EF
:1000C000F8010000071A78148711A0112008831680
:1000D00087008312071220122008831687008312DC
:1000E00008005208003A03197928013A03199E289A
:1000F000C428510EF700F030F70577082404D30028
:10010000D40027200000510EF700F030F7057708E3
:1001100004382404D300D40027200230F700F70B62
:100120008F2892280000510EF700F030F70577086D
:10013000FB392404D300D4002720C428510EF70033
:10014000F030F705770801382404D300D4002720C5
:100150000000510EF700F030F70577080138043839
:100160002404D300D40027200230F700F70BB62870
:10017000B9280000510EF700F030F7057708013874
:100180002404D300D400272008002016200883165A
:1001900087000430F700F70BCB288312A015200846
:1001A000831687000330F700F70BD4288312071259
:1001B00020122008831687000430F700F70BDE2892
:1001C00083128711A011200883168700273083121D
:1001D000D40027204E0ED0000F30D0055008D1009B
:1001E0004F08D20071204E080F39D000D1004F08BF
:1001F000D20071202012200883168700000083128D
:10020000A0152008831687008312871D0529043056
:10021000F700F70B09290C29000020162008831687
:1002200087000430F700F70B132983120800013010
:10023000CE00CF01C5200230C70013200130A3003B
:10024000080048082102031828292108C9002A2982
:100250004808C9004908013A03193829033A031923
:100260003A29013A03193D29073A0319402943293C
:10027000CB0144294030CB0044291430CB00442921
:100280005430CB004429CB014708220203184B29E4
:100290002208CA004D294708CA0001304A024B070C
:1002A000CC004C088038CD00CE00CF01C52008001E
:1002B00046080C3A03196329063A03196529023ADC
:1002C00003197229772917217C29A30A23082102FF
:1002D00003186C290130A3000130C7002308C800AF
:1002E00021217C291030CE00CF01C5207C29460871
:1002F000CE000130CF00C52008000B08C3008B13CF
:10030000831603178C170C140000000083120313CC
:10031000C31B8B1703170C087F390319D12903134B
:10032000C30003170D080313C40003170F080313BA
:10033000C5004308C6005821440803178D00031365
:10034000450803178F0003130B08C6008B13831691
:1003500003178C170C140000000083120313C61B34
:100360008B1703170C0D0E0D7F390319D1290313B9
:10037000C30003170D080313C40003170F0803136A
:10038000C5004308C6005821440803178D00031315
:10039000450803178F008D0A03198F0A03137D295F
:1003A0000317031308000830A4000B138B138B1BD7
:1003B000D6293230C7001320201620088316870064
:1003C0000430F700F70BE2298312A01520088316EA
:1003D00087000330F700F70BEB2983120712201276
:1003E0002008831687000430F700F70BF5298312E5
:1003F0008711A01120088316870027308312D400AC
:100400002720D101D20171200F30C7001320013005
:10041000C3004308033C031C162A0330D100D20159
:1004200071200530C7001320C30A092A0230D10009
:10043000D20171200530C700132020122008831636
:10044000870000008312A0152008831687008312FE
:10045000871D282A0430F700F70B2C2A2F2A0000CA
:1004600020162008831687000430F700F70B362A81
:100470008312C3014308033C031C492A4308042098
:10048000C400CE00CF01C5200530C7001320C30A29
:100490003A2A1721C0308B0417210130C700C80049
:1004A00021210C3003178D0000308F0003137D21B4
:1004B00083161F1383121F179F1783169F13831210
:1004C0001F1483161F109F141F159F150830F80066
:1004D00083121F08C73978049F008614831686107C
:1004E00014308312C70013208A110A12FA2D8E309D
:1004F000F7004408F8004308F900FA01F808031D62
:100500008B2A7908F800F9010830F702F808031D72
:100510008B2AF701932A0310F81B922AF90DF80D84
:10052000F7038B2AF8138A110A12062E80308318DB
:10053000D006D501D6014C08D4005008D4064B088B
:100540000319862BD300F7004F0803198F2BD30212
:1005500003192B2B031CE92A5008D900D91751087D
:10056000D8005208D700D6010310D90CD80CD70CEC
:10057000D60CD30BB32AD41FC02A5514A32B551065
:10058000531055164E3084008313B82B5512D41BCC
:10059000D32A531CDE2AD90CD80CD70CD60CF70A58
:1005A00003199E2BDE2AD91BE12A0310D60DD70D85
:1005B000D80DD90DF70303199E2BD32A55174B2BB2
:1005C00055134C08D400D41FE72AD917972BD913F9
:1005D000972B4F08D300F7004B08D3024C08D900E3
:1005E000D9174D08D8004E08D700D6010310D90CF2
:1005F000D80CD70CD60CD30BF52AD41F022BD5144C
:10060000A32BD5105310D516523084008313B82B6A
:10061000D512D41B152B531C202BD90CD80CD70C5E
:10062000D60CF70A03199E2B202BD91B232B031062
:10063000D60DD70DD80DD90DF70303199E2B152B09
:10064000D5174B2BD5135008D400D41F292BD917FD
:10065000972BD913972B5008D900D9175108D800D8
:100660005208D700D41F382BD9135515A32B551179
:10067000D60153104E3084008313B82BD41B612B4A
:100680004C08D400531C4B2BD90CD80CD70CD60CCF
:10069000F70A03199E2BD61F5C2BD70A031D5C2B70
:1006A000D80A031D5C2BD90A031D5C2BD90CD80C6E
:1006B000D70CF70A03199E2B551BE02AD51B222BBA
:1006C000802B8030D906D91F692BA32B5008D4006A
:1006D000762B4C08D400D908031D762BD808031DAF
:1006E000762BD708031D762BF701972BD91B802B70
:1006F0000310D60DD70DD80DD90DF70B762B9E2BE9
:10070000D41F842BD917972BD913972B4F08F70099
:100710005008D9005108D8005208D700972B4B0831
:10072000F7004C08D9004D08D8004E08D7005908EA
:10073000F8005808F9005708FA00D62BF701F8011D
:10074000F901FA01D62BD601D709D809D909D6095A
:10075000D60A031DB12BD70A031DB12BD80A0319E2
:10076000D90A5518BF2AD518012B5519372B662BD6
:100770000008D707031CC22BD80A031DC22BD90AB5
:100780000319531484030008D807031CCA2BD90A81
:100790000319531484030008801F803AD9070318F3
:1007A0005314551AC62AD51A082B3E2B08004B089D
:1007B0000319472CD3004F080319472CD3070318FC
:1007C000E82B7F30D302031C472C0319472CEC2B5A
:1007D0008130D3070318472C5308F700F801F901BB
:1007E000FA014C08D700D7174D08D6004E08D5009F
:1007F0001830D300D401551C152C5208FA07031CDD
:10080000072CF90A031D072CF80A0319D4175108FD
:10081000F907031C0E2CF80A0319D4175008CD0051
:10082000CD174D08F8070318D417D40DF80CF90CA0
:10083000FA0CD70CD60CD50C0310D30BFA2B0130C5
:10084000F7070318472CF81B2C2CD70DFA0DF90DC0
:10085000F80DF7030319472CD71F3D2CFA0A031D87
:100860003D2CF90A031D3D2CF80A031D3D2CF80C04
:10087000F90CFA0CF70A0319472C4C08D40050085D
:10088000D406D41F452CF8174B2CF8134B2CF7012A
:10089000F801F901FA0108004808CF004C08CF061A
:1008A000CF1F572C03110310C81B03148A2C4808B0
:1008B000CF004B08D0004708D0020319652CCF1F8A
:1008C0008A2C0308013A83008A2C4C08D00048087F
:1008D000D0020319712CCF1F8A2C0308013A830020
:1008E0008A2C4D08D0004908D00203197D2CCF1F57
:1008F0008A2C0308013A83008A2C4E08D0004A084B
:10090000D0020319892CCF1F8A2C0308013A8300D7
:100910008A2C0310080083143A08CE003908CD0051
:100920003808CC003708CB004608D2004508D10073
:100930004408D0004308CF0096227A08AA0079081C
:10094000A9007808A8007708A70083103208CE0015
:100950003108CD003008CC002F08CB002A08D20087
:100960002908D1002808D0002708CF0096227A084D
:10097000B2007908B1007808B0007708AF0083149E
:100980002A08CE002908CD002808CC002708CB0073
:100990002E08D2002D08D1002C08D0002B08CF0043
:1009A00096227A08B6007908B5007808B40077086E
:1009B000B300CE01CD01CC017F30CB002A08D2009C
:1009C0002908D1002808D0002708CF00D7237A08AB
:1009D000CA007908C9007808C8007708C700CD3078
:1009E000CE00CC30CD004C30CC007B30CB00320878
:1009F000D2003108D1003008D0002F08CF00D72313
:100A000083104A08CE004908CD004808CC004708AA
:100A1000CB007A08D2007908D1007808D000770896
:100A2000CF0096227A08CA007908C9007808C80061
:100A30007708C700CD30CE00CC30CD004C30CC0094
:100A40007A30CB003608D2003508D1003408D00007
:100A50003308CF00D72383104A08CE004908CD00C1
:100A60004808CC004708CB007A08D2007908D100AA
:100A70007808D0007708CF0096227A08BE0079085F
:100A8000BD007808BC007708BB00CA01C9017F30EF
:100A9000C8008630C7003E08CE003D08CD003C08A7
:100AA000CC003B08CB004C24031C772DBE01BD01BC
:100AB0007F30BC008630BB0083143208CE00310882
:100AC000CD003008CC002F08CB002A08D20029081E
:100AD000D1002808D0002708CF0096227A08B2005B
:100AE0007908B1007808B0007708AF00A42D3E085F
:100AF000CA003D08C9003C08C8003B08C700CE0139
:100B0000CD01CC01CB014C24031CA42DBE01BD01A1
:100B1000BC01BB0183143208CE003108CD0030087F
:100B2000CC002F08CB002A08D2002908D1002808C1
:100B3000D0002708CF0096227A08B2007908B100C9
:100B40007808B0007708AF002A08AE002908AD0089
:100B50002808AC002708AB008A110A12172E80085B
:100B60000319C42DC4010408C3004410831B44149A
:100B70000008C600582143088400831344188317D3
:100B8000840A0319850AAF2D8A110A122E2E030832
:100B90001F398300FF30A0000430A1001430A200F0
:100BA0000130A3000830A400AA01A901A801A701EF
:100BB000AE01AD01AC01AB01B201B101B001AF01B9
:100BC000B601B501B401B301BA01B9014830B800AA
:100BD0008430B700BE01BD01BC01BB0183161F14E8
:100BE0009F141F159F1107309C0083138312A501CA
:100BF000A601D3291F151F19FB2D1E08FA00831605
:100C00001E088312C3001E08C400772A7A08C20097
:100C10007908C1007808C0007708BF004208C60004
:100C20004108C5004008C4003F08C3008B2C0230B7
:100C3000C7000130C80021210F3003178D0000309C
:100C40008F0003137D210230C7000830C800212126
:100C50003F088400831340188317AF2DFA2D6300DB
:02400E00323F3F
:00000001FF
;PIC16F877A
;CRC=AA5A  CREATED="11-Dec-23 16:36"
