:1000000006308A00442E0000FF00030E8301A10089
:100010000A08A0008A010408A2007708A300780853
:10002000A4007908A5007A08A60003170D08031399
:10003000A70003170F080313A80003170C080313E6
:10004000A90003170E080313AA00831383120B1EC3
:100050002B288B1852288C308400001C31280C1857
:100060005528220884002308F7002408F8002508F2
:10007000F9002608FA00270803178D000313280843
:1000800003178F000313290803178C0003132A0892
:1000900003178E00031320088A00210E8300FF0E31
:1000A0007F0E09008A110A1258288A110A125F2845
:1000B000AF0A0319B00A8B108A110A1231288E0177
:1000C000FE308F000C308E002E08023C0318722880
:1000D000FF3A031D6F282D08FD3C03187228FF30DE
:1000E000AC00AB00AE08031D7C282D08013C031CAE
:1000F0007C28AC010130AB002B08AD072C0803189D
:100100002C0FAE072E08F9002D08F800F90CF80C9A
:10011000F90CF80CF90C78089500F90C790C3039C9
:10012000F7001708CF39770497002D08FF3CD60059
:100130000330D7002E08031C2E0FD702D70CD60C85
:10014000D70CD60CD70C56089B00D70C570C30395F
:10015000F7001D08CF3977049D000C108A110A1290
:1001600031280C32E9326E3AF539F034E432721744
:10017000E3376D008C346E3ABA126C32202ABA1210
:1001800030173133AA2100004122431D2536750066
:100190004A308400831300080319DB280630F80076
:1001A000F701F70BD128F80BD0287B30F700F70BBD
:1001B000D728800BCE2808005118E0280812E12823
:1001C0000816831608128312D118E8288812E92825
:1001D00088168316881283125119F0280813F12803
:1001E0000817831608138312D119F8288813F928E1
:1001F00088178316881300008312081583160811C8
:100200000230F700F70B02290529000083120811BC
:100210008316081183120800D201831608160030D5
:100220008312081A0130D204831688160030831214
:10023000881A0130F7000310F70D7708D2048316EF
:10024000081700308312081B0130F700F70DF70D77
:10025000FC30F7057708D204831688170030831224
:10026000881B0130F700F70DF70DF70DF830F70593
:100270007708D2045208F800080083160811081005
:10028000881083120810831608100816881608179D
:1002900088178312881483168810000083120815AB
:1002A00083160811000083120C217808D100081170
:1002B000831608110000831208158316081160299F
:1002C0006129000083120C217808D00008118316E0
:1002D000081108128812081388138312510EF700B0
:1002E000F030F70577085004F8007808D000D01FE8
:1002F0007B2983164529CE08031D802908108129F2
:1003000008148316081000008312881083168810C2
:100310000000831208118316081183124F0ED000BB
:100320000F30D0055008D100DC204F080F39D00025
:10033000D100DC2008002830BD000C30BE000130A8
:10034000BF000630C0000811831608118312081080
:1003500083160810831288108316881008128812DA
:10036000081388130811081088100F308312CA0070
:10037000C8200130BC003C08033C031CC7290330E3
:10038000D100DC200530CA00C820BC0ABB290230DD
:10039000D100DC200530CA00C820BC013C08033C69
:1003A000031CDE293D303C07840083130008C10094
:1003B000CE014108CF003D21BC0ACE298A110A1284
:1003C0008D2E4B0BE429E7294030CC00E829CC01E5
:1003D00001304A02CC074C088038CD00CE014D08D0
:1003E000CF003D2108004908073A0319012A0B3ABA
:1003F0000319062A063A03190E2A023A0319142A87
:10040000192A0130CA00CB00E1211E2ACE01013099
:10041000CF003D210230CA00C8201E2A0130CA0088
:100420000230CB00E1211E2ACE011030CF003D2149
:100430001E2A0130CE004908CF003D2108000B08DC
:10044000BC008B13831603178C170C1400000000DC
:1004500083120313BC1B8B1703170C087F39031976
:10046000732A0313BC0003170D080313BD00031701
:100470000F080313BE003C08C900F3213D08031711
:100480008D0003133E0803178F0003130B08BF00F2
:100490008B13831603178C170C14000000008312B3
:1004A0000313BF1B8B1703170C0D0E0D7F39031998
:1004B000732A0313BC0003170D080313BD000317B1
:1004C0000F080313BE003C08C900F3213D080317C1
:1004D0008D0003133E0803178F008D0A03198F0A3E
:1004E00003131F2A031703138A110A12942E8E3046
:1004F000F7003D08F8003C08F900FA01F808031D70
:100500008B2A7908F800F9010830F702F808031D72
:100510008B2AF701932A0310F81B922AF90DF80D84
:10052000F7038B2AF8138A110A12AD2E4908031912
:10053000062BD1004D080319062BD1070318A72A53
:100540007F30D102031C062B0319062BAB2A813006
:10055000D1070318062B5108F700F801F901FA0139
:100560004A08D500D5174B08D4004C08D3001830E2
:10057000D100D201531CD42A5008FA07031CC62A02
:10058000F90A031DC62AF80A0319D2174F08F907FA
:10059000031CCD2AF80A0319D2174E08CB00CB173B
:1005A0004B08F8070318D217D20DF80CF90CFA0C07
:1005B000D50CD40CD30C0310D10BB92A0130F7079A
:1005C0000318062BF81BEB2AD50DFA0DF90DF80DC3
:1005D000F7030319062BD51FFC2AFA0A031DFC2A70
:1005E000F90A031DFC2AF80A031DFC2AF80CF90C71
:1005F000FA0CF70A0319062B4A08D2004E08D20655
:10060000D21F042BF8170A2BF8130A2BF701F80155
:10061000F901FA01080040080319D02BCC00440866
:100620000319D02BCC02031C1A2B7F30CC070318E4
:10063000D02B202B8130CC02031CD02B0319D02BC4
:100640004C08F700F801F901FA01CB014108CA0092
:10065000CA174208C9004308C8001930CC0047082F
:10066000C8020318432B0130C9020318432BCA02E6
:100670000318432BCB020318432BCB0ACA0AC90A1F
:100680004708C807752B4608C90203185E2B0130BE
:10069000CA0203185E2BCB0203185E2BCB0ACA0AD0
:1006A0004608C9074708C807031C752BC90A031D5C
:1006B000752BCA0A031D752BCB0A752B450880388C
:1006C000CA020318742B0130CB020318742BCB0A17
:1006D00045088038CA074608C907031C522BCA0AB6
:1006E000031D522BCB0A522B7A14CC0B782B832B65
:1006F0000310C80DC90DCA0DCB0D0310FA0DF90D6D
:10070000F80DCD0D2F2B4D1C8B2B0310F80CF90C75
:10071000FA0CCD0C8E2BF7030319D02BCD1BB72B66
:100720000310C80DC90DCA0DCB0D4708C802031828
:10073000A32B0130C9020318A32BCA020318A32B51
:10074000CB02031CC62B4608C9020318AE2B01308E
:10075000CA020318AE2BCB02031CC62B45088038F7
:10076000CA020318B72B0130CB02031CC62BFA0AAE
:10077000031DC62BF90A031DC62BF80A031DC62B41
:10078000F70A0319D02BF80CF90CFA0C4108CC002D
:100790004508CC06CC1FCE2BF817D42BF813D42B3E
:1007A000F701F801F901FA018A110A12DA2E0B0891
:1007B000BD008B13831603178C170C140000000068
:1007C00083120313BD1B8B1703180E2C03170C0881
:1007D0007F390313BD0003170D080313BE00031771
:1007E0000F080313BF003D08C900F3213E0803179B
:1007F0008D0003133F0803178F0003130B08C0007D
:100800008B13831603178C170C140000000083123F
:100810000313C01B8B17BC0B0E2C2D2C03170C0DB8
:100820000E0D7F390313BD0003170D080313BE001F
:1008300003170F080313BF003D08C900F3213E084A
:1008400003178D0003133F0803178F008D0A031948
:100850008F0A03100313BC0BD72B0800C401040834
:10086000C3004410831B4414BD1F3E2CC317431EFA
:10087000C30ABC09BD09BC0A0319BD0A3D0EF03804
:10088000BF00BF07E23EC000323EC2003D080F3944
:10089000C007C007C207E93EC100C107C1073C0E3F
:1008A0000F39C107C207C10DC20DC209C20D3C08F4
:1008B0000F39C207BF0D0730BE000A30C207C1039F
:1008C000031C5E2CC107C003031C622CC007BF03BE
:1008D000031C662CBF07BE03031C6A2C3E30840039
:1008E000831307304305431384034305031D7F2C03
:1008F000431A840A431A7F2C2030F7009C2C84076B
:1009000042300402031943170008F700031D902C1E
:10091000431B902C431AAA2CC319902C20309B2CDB
:10092000C31F982C2D30F70084034313C3139C2C52
:10093000C31543123030F707BD010408BC003D1059
:10094000831B3D147708C900F3213C0884008313FE
:100950003D188317840A431F802C8A110A120A2F1C
:100960008318B52C513084008313F701F801F90185
:10097000FA01D101D201D301D40150084F044E0431
:100980004D040319F32C2030D5000310C90DCA0DF6
:10099000CB0DCC0DD10DD20DD30DD40D500854027A
:1009A000031DDC2C4F085302031DDC2C4E085202A1
:1009B000031DDC2C4D085102031CED2C4D08D10207
:1009C0004E08031C4E0FD2024F08031C4F0FD302D8
:1009D0005008031C500FD4020314F70DF80DF90D45
:1009E000FA0DD50BC52C51088000840A52088000EE
:1009F000840A53088000840A540880000800040810
:100A0000C1004008C30003191E2D3F08CC003E085A
:100A1000CB003D08CA003C08C900D001CF012030FE
:100A2000CE008230CD0096227A08BF007908BE0041
:100A30007808BD007708BC00C30B052D3F08CC002B
:100A40003E08CB003D08CA003C08C9004908B63C36
:100A5000C900FA014A08CD00CA170310CA0CCB0C12
:100A6000CC0CFA0CF90CF80CF70CC90B2D2DCD1F82
:100A7000442DF709F809F909FA09F70A0319F80AE0
:100A80000319F90A0319FA0A7A08BF007908BE00A7
:100A90007808BD007708BC00BF1F5B2DC103C116DD
:100AA000BC09BD09BE09BF09BC0A0319BD0A031967
:100AB000BE0A0319BF0A3B30C8009A30C700CA30CB
:100AC000C600C5010A30C30040080319C10A8314D7
:100AD0003C30840083133F08CC003E08CB003D0827
:100AE000CA003C08C9004808D0004708CF004608A3
:100AF000CE004508CD00B0247808F708031D932DDB
:100B0000400A43020319932D41080319952D0F390B
:100B1000430203198D2D0318C52DC11BC52D411B83
:100B2000952D2030C12D2030C105C11EA32DC1122D
:100B30004008031DC1037708C1002D30C900F3210F
:100B40004108F700C10140084302031DB12D770899
:100B5000C1002E30C900F3214108F7002030C10543
:100B600000303030C11EC12DC1124008031DC10329
:100B70007708C1002D30C900F3214108F700C101F9
:100B80003030F7077708C900F32183104808CC00FC
:100B90004708CB004608CA004508C900D001CF016C
:100BA000CE010A30CD00B0247A08C8007908C70009
:100BB0007808C6007708C500C30B672D0800C4017C
:100BC0000408C3004410831B44143D0EF038BF00DA
:100BD000BF07E23EC000323EC2003D080F39C007E9
:100BE000C007C207E93EC100C107C1073C0E0F396B
:100BF000C107C207C10DC20DC209C20D3C080F39A1
:100C0000C207BF0D0730BE000A30C207C103031C74
:100C1000052EC107C003031C092EC007BF03031C18
:100C20000D2EBF07BE03031C112E3E30840083131C
:100C30000730430543138407423004020319431766
:100C40000008F700031D2C2E431B2C2E431A3E2EAA
:100C5000C3192C2E20302F2EC31543123030F70726
:100C6000BD010408BC003D10831B3D147708C9007A
:100C7000F3213C08840083133D188317840A431F23
:100C80001C2E8A110A12512F03081F39830081304C
:100C900083169900A6309800903083129800AC011A
:100CA0001430AB00AE01AD01B001AF01FF30B100B7
:100CB00083161F149F141F159F1107309C00831368
:100CC0001F109F141F159F151F1383121F179F17A7
:100CD00083169F1383121F14953090000030F80084
:100CE00006389200FF3083169200831231113108CA
:100CF00083168700831207110C309700B11031085A
:100D000083168700831287100C309D0083160C1405
:100D100083120B16C0308B049B29B13003178D0052
:100D200000308F0003131F2A0430BC00FA30CA00C1
:100D3000C820BC0B962EC830CA00C8201F151F192A
:100D40009F2E1E08FA0083161E088312B2001E088A
:100D5000B300BD003208BC00772A7A08BF007908CA
:100D6000BE007808BD007708BC007A08CC0079087E
:100D7000CB007808CA007708C900D001CF01203025
:100D8000CE008130CD0096227A08BF007908BE00DF
:100D90007808BD007708BC007A08C3007908C20053
:100DA0007808C1007708C000C701C601C5018F30AF
:100DB000C4000B2B7A08B7007908B6007808B50094
:100DC0007708B4003708CC003608CB003508CA00D5
:100DD0003408C900D001CF014830CE008530CD00A5
:100DE00096227A08BB007908BA007808B90077081B
:100DF000B800BA3003178D0000308F0003100530A3
:100E00000313BC00D723103084003008BD002F0826
:100E1000BC002E2C2030C900F3215430C900F3212E
:100E20003A30C900F321C93084003B08BF003A08BA
:100E3000BE003908BD003808BC000130C000FF24E6
:100E40002A30C900F3214330C900F3210B30CA0016
:100E50000230CB00E121C93084003708BF003608DA
:100E6000BE003508BD003408BC000230C000FF24BD
:100E70005630C900F3210130CA000230CB00E12115
:100E8000C43003178D0000308F00031004300313AB
:100E9000BC00D723103084003308BD003208BC00EA
:060EA000DF2D9B2E630014
:02400E00323F3F
:00000001FF
;PIC16F877A
;CRC=9D71  CREATED="11-Mar-19 12:30"
